:100000000C9434000C9454000C9451000C94510046
:100010000C9451000C9451000C9451000C9451001C
:100020000C9451000C9451000C9451000C9451000C
:100030000C9453000C9451000C9451000C945100FA
:100040000C9451000C9451000C9451000C945100EC
:100050000C9451000C9455000C9451000C945100D8
:100060000C9451000C94510011241FBECFEFD8E026
:10007000DEBFCDBF11E0A0E0B1E0E8E0F2E002C0F9
:1000800005900D92AA30B107D9F721E0AAE0B1E0BE
:1000900001C01D92A031B207E1F70E94D5000C9477
:1000A00002010C940000189518958F939F938091EE
:1000B00078009091790090930B0180930A019F91B1
:1000C0008F9118958BE284B91AB85A9A08951092B4
:1000D00080008BE080938100109285001092840054
:1000E000EFE6F0E08081846080838AE196E090937F
:1000F00089008093880090938B0080938A000895F4
:1001000068EE73E00E94EE00ECE0F1E0638364E6E9
:1001100070E00E94EE0062836AE070E00E94EE00F0
:100120006183808308958EBD0DB407FEFDCF0895D1
:10013000CF93DF930E9480002998CCE0D1E0E88142
:10014000F0E0E050FF4F80810E949300E981F0E0F1
:10015000E050FF4F80810E949300EA81F0E0E05080
:10016000FF4F80810E949300EB81F0E0E050FF4F51
:1001700080810E949300299ADF91CF91089584B1E4
:10018000886284B98DB581608DBD80E58CBD85B1F7
:10019000877D85B9089581E080937C0085E0809318
:1001A0007B0088EA80937A0008950E9462000E9492
:1001B000BF000E946700E89A809169008260809386
:1001C00069000E94CB007894289890E080E00E941B
:1001D000980080910A0190910B01F9CFAA1BBB1BDB
:1001E00051E107C0AA1FBB1FA617B70710F0A61B37
:1001F000B70B881F991F5A95A9F780959095BC0158
:08020000CD010895F894FFCF31
:0A0208003F065B4F666D7D077F6FB8
:00000001FF
