:100000000C9434000C9473000C9451000C94510027
:100010000C9451000C9451000C9451000C9451001C
:100020000C9451000C9451000C9451000C9451000C
:100030000C9472000C9451000C9451000C945100DB
:100040000C9451000C9451000C94AC000C94510091
:100050000C9451000C9488000C9451000C945100A5
:100060000C9451000C94510011241FBECFEFD8E026
:10007000DEBFCDBF11E0A0E0B1E0E2EBF3E002C0F3
:1000800005900D92A231B107D9F721E0A2E1B1E0CC
:1000900001C01D92A632B207E1F70E945E010C94E6
:1000A000D7010C94000084B1886284B98DB5816059
:1000B0008DBD80E58CBD85B1877D85B9089581E0D2
:1000C00080937C0085E080937B0088EA80937A00AF
:1000D0000895809178009091790090931901809310
:1000E0001801089518958F93EF93FF93EEE1F1E0D7
:1000F00080E3808381838283838384838583868373
:10010000878381E080931501FF91EF918F9118957E
:100110001F920F920FB60F9211242F933F934F937C
:100120005F936F937F938F939F93AF93BF93EF935F
:10013000FF930E946900FF91EF91BF91AF919F9152
:100140008F917F916F915F914F913F912F910F9080
:100150000FBE0F901F9018951F921FB61F9211246B
:100160008F939F93EF93FF938091C6008D3011F092
:100170008A3069F481E08093150110921601FF9195
:10018000EF919F918F911F901FBE1F901895909196
:1001900016019730A0F7E091160191E09E0F909321
:1001A0001601F0E0E25EFE4F8083E9CF8BE284B976
:1001B0001AB85A9A0895109280008BE080938100BB
:1001C0001092850010928400EFE6F0E08081846058
:1001D00080838AE196E090938900809388009093D1
:1001E0008B0080938A0008959091C00095FFFCCF0A
:1001F0008093C6000895CF93DF93EC01899181111C
:1002000003C0DF91CF9108950E94F400F7CF9C01C5
:1002100090E080E0F901E80FF91F10820196883024
:100220009105C1F7089588E98093C10086E0809325
:10023000C2001092C5008CE08093C400089568EE5F
:1002400073E00E94C301EAE1F1E0638364E670E0D9
:100250000E94C30162836AE070E00E94C30161836F
:10026000808308958EBD0DB407FEFDCF0895CF9312
:10027000DF930E941F012998CAE1D1E0E881F0E0F4
:10028000E050FF4F80810E943201E981F0E0E050B0
:10029000FF4F80810E943201EA81F0E0E050FF4F81
:1002A00080810E943201EB81F0E0E050FF4F8081BD
:1002B0000E943201299ADF91CF9108950E94D600C1
:1002C0000E9453000E94DB00E89A809169008260DE
:1002D000809369000E945F000E941301789428981F
:1002E00090E080E00E9437018AE091E00E94FB00EC
:1002F000CAE0809115018130E1F780911E018736B7
:10030000B1F580911F01843791F5809120018032F1
:1003100071F523E030E090E080E0F901E25EFE4F0D
:10032000408140336CF140814A3354F56081C89F6D
:10033000A001C99F500D1124CA01C097860F911DBD
:1003400067FD9A952F5F3F4F2730310531F7909326
:1003500019018093180180911801909119010E9450
:100360003701109215018EE191E00E940701109271
:100370001501109216018EE191E00E940701B9CF9C
:1003800090E080E0E4CFAA1BBB1B51E107C0AA1F8D
:10039000BB1FA617B70710F0A61BB70B881F991F26
:1003A0005A95A9F780959095BC01CD010895F894D0
:0203B000FFCF7D
:1003B2003F065B4F666D7D077F6F48656C6C6F0D06
:0203C2000A002F
:00000001FF
