:100000000C9434000C9473000C9451000C94510027
:100010000C9451000C9451000C9451000C9451001C
:100020000C9451000C9451000C9451000C9451000C
:100030000C9472000C9451000C9451000C945100DB
:100040000C9451000C9451000C94A3000C9451009A
:100050000C9451000C947F000C9451000C945100AE
:100060000C9451000C94510011241FBECFEFD8E026
:10007000DEBFCDBF11E0A0E0B1E0E0E7F3E002C0F9
:1000800005900D92A832B107D9F721E0A8E2B1E0BE
:1000900001C01D92A833B207E1F70E9449010C94F8
:1000A000B6010C94000084B1886284B98DB581607A
:1000B0008DBD80E58CBD85B1877D85B9089581E0D2
:1000C00080937C0085E080937B0088EA80937A00AF
:1000D0000895809178009091790090932C018093FD
:1000E0002B01089518958F938FB78F9380912A01D4
:1000F000816080932A018F918FBF8F9118951F92F5
:100100000F920FB60F9211242F933F934F935F934B
:100110006F937F938F939F93AF93BF93EF93FF93CF
:100120000E946900FF91EF91BF91AF919F918F91D4
:100130007F916F915F914F913F912F910F900FBEE3
:100140000F901F9018951F921FB61F9211248F9326
:100150009F93EF93FF938091C6008D3011F08A300A
:1001600069F481E08093290110922801FF91EF91B9
:100170009F918F911F901FBE1F90189590912801FD
:100180009730A0F7E091280191E09E0F909328010D
:10019000F0E0EF5CFE4F8083E9CF8BE284B91AB8C0
:1001A0005A9A0895109280008BE0809381001092FB
:1001B000850010928400EFE6F0E080818460808307
:1001C0008AE196E0909389008093880090938B0059
:1001D00080938A0008959091C00095FFFCCF809392
:1001E000C6000895CF93DF93EC018991811103C07C
:1001F000DF91CF9108950E94EB00F7CF88E98093BB
:10020000C10086E08093C2001092C5008CE080930C
:10021000C400089568EE73E00E94A201EDE2F1E0EF
:10022000638364E670E00E94A20162836AE070E08A
:100230000E94A2016183808308958EBD0DB407FEE4
:10024000FDCF0895CF93DF930E940A012998CDE254
:10025000D1E0E881F0E0E050FF4F80810E941D0175
:10026000E981F0E0E050FF4F80810E941D01EA81AA
:10027000F0E0E050FF4F80810E941D01EB81F0E033
:10028000E050FF4F80810E941D01299ADF91CF919C
:1002900008950E94CD000E9453000E94D200E89A67
:1002A000809169008260809369000E945F000E94D3
:1002B000FE007894289890E080E00E9422018AE075
:1002C00091E00E94F20080912B0190912C010E94FC
:1002D000220190912A0180912A018170891321C005
:1002E00082E191E00E94F20080913001805D0E94E5
:1002F000EB0080912F01805D0E94EB0080912E0128
:10030000805D0E94EB0080912D01805D0E94EB00DA
:100310008FE091E00E94F20080912A018E7F80930D
:100320002A0190912A0180912A0182708913CBCFF2
:100330008BE191E00E94F20080912A018D7F8093F1
:100340002A01C1CFAA1BBB1B51E107C0AA1FBB1FBB
:10035000A617B70710F0A61BB70B881F991F5A9551
:10036000A9F780959095BC01CD010895F894FFCF31
:100370003F065B4F666D7D077F6F48656C6C6F0D48
:100380000A0056616C7565203D2000526F676572EA
:0803900020746861740D0A007D
:00000001FF
