:100000000C9434000C9473000C9451000C94510027
:100010000C9451000C9451000C9451000C9451001C
:100020000C9451000C9451000C9451000C9451000C
:100030000C9472000C9451000C9451000C945100DB
:100040000C9451000C9451000C94A3000C9451009A
:100050000C9451000C947F000C9451000C945100AE
:100060000C9451000C94510011241FBECFEFD8E026
:10007000DEBFCDBF11E0A0E0B1E0ECE3F3E002C0F1
:1000800005900D92A832B107D9F721E0A8E2B1E0BE
:1000900001C01D92AF32B207E1F70E942F010C940C
:1000A0009C010C94000084B1886284B98DB5816094
:1000B0008DBD80E58CBD85B1877D85B9089581E0D2
:1000C00080937C0085E080937B0088EA80937A00AF
:1000D0000895809178009091790090932A018093FF
:1000E0002901089518958F938FB78F9380912801D8
:1000F0008160809328018F918FBF8F9118951F92F7
:100100000F920FB60F9211242F933F934F935F934B
:100110006F937F938F939F93AF93BF93EF93FF93CF
:100120000E946900FF91EF91BF91AF919F918F91D4
:100130007F916F915F914F913F912F910F900FBEE3
:100140000F901F9018958F938FB78F938091C60053
:10015000803229F4809128018260809328018F9158
:100160008FBF8F9118958BE284B91AB85A9A089567
:10017000109280008BE08093810010928500109295
:100180008400EFE6F0E08081846080838AE196E07D
:10019000909389008093880090938B0080938A00CD
:1001A00008959091C00095FFFCCF8093C6000895FC
:1001B000CF93DF93EC018991811103C0DF91CF913F
:1001C00008950E94D100F7CF88E98093C10086E0AE
:1001D0008093C2001092C5008CE08093C400089503
:1001E00068EE73E00E948801EBE2F1E0638364E66D
:1001F00070E00E94880162836AE070E00E948801DA
:100200006183808308958EBD0DB407FEFDCF0895F0
:10021000CF93DF930E94F0002998CBE2D1E0E881F0
:10022000F0E0E050FF4F80810E940301E981F0E09F
:10023000E050FF4F80810E940301EA81F0E0E0502E
:10024000FF4F80810E940301EB81F0E0E050FF4FFF
:1002500080810E940301299ADF91CF9108950E9425
:10026000B3000E9453000E94B800E89A8091690090
:100270008260809369000E945F000E94E40078948D
:10028000289890E080E00E9408018AE091E00E94B6
:10029000D8008091290190912A010E940801909133
:1002A0002801809128018170891321C082E191E0A9
:1002B0000E94D80080912E01805D0E94D100809123
:1002C0002D01805D0E94D10080912C01805D0E94F3
:1002D000D10080912B01805D0E94D1008FE091E0E0
:1002E0000E94D800809128018E7F809328019091F0
:1002F00028018091280182708913CBCF8BE191E096
:100300000E94D800809128018D7F80932801C1CF61
:10031000AA1BBB1B51E107C0AA1FBB1FA617B7072B
:1003200010F0A61BB70B881F991F5A95A9F7809547
:0C0330009095BC01CD010895F894FFCF1A
:10033C003F065B4F666D7D077F6F48656C6C6F0D7C
:10034C000A0056616C7565203D2000526F6765721E
:08035C0020746861740D0A00B1
:00000001FF
